:060000000A128A11D32F41
:100012007008710403193628F501F50AF11B1D2831
:1000220001300310F00DF10DFF3E031D12280130C7
:10003200F4007408F5070F2871087302031D2328C2
:1000420070087202031C2B287008F2027108031C4C
:10005200F303F30201300310F10CF00CFF3E031D19
:100062002C280130F502031D1D287308F1007208C7
:10007200F000080048308400AA3083120313C40041
:100082000408C5000A30C60044088400831300082F
:10009200C700C40A4508840047088000C50AC60B89
:1000A2004528E830F0000330F1004308F30042082D
:1000B200F2000A128A1109200A128A1171088312A7
:1000C2000313D9007008D8000030F3000030F200AA
:1000D2000030F1006430F0005808F4005908F500CF
:1000E200F601F7010A168A11A2270A128A1171086B
:1000F20083120313D3007008D2005208483E8400D2
:10010200831300080A128A1500200A128A11643029
:10011200F0000030F100831203134308F300420899
:10012200F2000A128A1109200A128A117108831236
:100132000313D9007008D8000A30F0000030F10033
:100142005908F3005808F2000A168A11F1250A121A
:100152008A11710883120313D5007008D400540861
:10016200483E8400831300080A128A1500200A12EE
:100172008A110A30F0000030F100831203134308A1
:10018200F3004208F2000A128A1109200A128A11A7
:10019200710883120313D7007008D6005608483E30
:1001A2008400831300080A128A15002008008312B3
:1001B20003136808053EBA0069080318013E003EB1
:1001C200BB006908B9006808B8006908B700680888
:1001D200B6006808053EB20069080318013E003EF9
:1001E200B30066086807DA0067080318670A690738
:1001F200DB005A08053EB0005B080318013E003ED2
:10020200B1006808053EAE0069080318013E003ED1
:10021200AF0066086807DA0067080318670A69070B
:10022200DB005A080A3EAA005B080318013E003EA2
:10023200AB0066086807DA0067080318670A6907EF
:10024200DB0064085A07DC0065080318650A5B07CF
:10025200DD005C080A3EA8005D080318013E003E6E
:10026200A90066086807DA0067080318670A6907C1
:10027200DB005A080A3EA6005B080318013E003E56
:10028200A70066086807DA0067080318670A6907A3
:10029200DB0064085A07DC0065080318650A5B077F
:1002A200DD005C080F3EA4005D080318013E003E1D
:1002B200A50066086807DA0067080318670A690775
:1002C200DB0064085A07DC0065080318650A5B074F
:1002D200DD0062085C07DE0063080318630A5D073D
:1002E200DF005E080F3EA2005F080318013E003ED9
:1002F200A30066086807DA0067080318670A690737
:10030200DB0064085A07DC0065080318650A5B070E
:10031200DD005C080F3EA0005D080318013E003EB0
:10032200A1000130F4000030F5000330F600003087
:10033200F7000A168A11AD260A128A1116300A1619
:100342008A11D5250A128A110230F4000030F50014
:100352000330F6000030F7000A168A11AD260A12A1
:100362008A111F300A168A11D5250A128A11033002
:10037200F4000030F5000330F6000030F7000A16F2
:100382008A11AD260A128A111F300A168A11D52542
:100392000A128A110430F4000030F5000330F6002E
:1003A2000030F7000A168A11AD260A128A111F3090
:1003B2000A168A11D5250A128A110A128A153920BB
:1003C2000800831203136208053EBA00630803188B
:1003D200013E003EBB0068086207DA0069080318A4
:1003E200690A6307DB005A08053EB8005B08031878
:1003F200013E003EB9006208053EB60063080318DC
:10040200013E003EB70068086207DA006908031877
:10041200690A6307DB005A080A3EB2005B08031848
:10042200013E003EB30068086207DA00690803185B
:10043200690A6307DB0066085A07DC0067080318CD
:10044200670A5B07DD005C080A3EB0005D0803181E
:10045200013E003EB10068086207DA00690803182D
:10046200690A6307DB005A080A3EAE005B080318FC
:10047200013E003EAF0068086207DA00690803180F
:10048200690A6307DB0066085A07DC00670803187D
:10049200670A5B07DD005C080F3EAA005D080318CF
:1004A200013E003EAB0068086207DA0069080318E3
:1004B200690A6307DB0066085A07DC00670803184D
:1004C200670A5B07DD0064085C07DE006508031845
:1004D200650A5D07DF005E080F3EA8005F0803188B
:1004E200013E003EA90068086207DA0069080318A5
:1004F200690A6307DB0066085A07DC00670803180D
:10050200670A5B07DD005C080F3EA6005D08031862
:10051200013E003EA7006208053EA40063080318DE
:10052200013E003EA5006308A3006208A200630822
:10053200A1006208A0000130F4000030F500033091
:10054200F6000030F7000A168A11AD260A128A1147
:100552001F300A168A11D5250A128A110230F400B8
:100562000030F5000330F6000030F7000A168A1159
:10057200AD260A128A111F300A168A11D5250A12CF
:100582008A110330F4000030F5000330F600003029
:10059200F7000A168A11AD260A128A111F300A16AE
:1005A2008A11D5250A128A110430F4000030F500B0
:1005B2000330F6000030F7000A168A11AD260A123F
:1005C2008A1116300A168A11D5250A128A110A12C0
:1005D2008A15CD2108008312031364086607DA0026
:1005E20065080318650A6707DB0062085A07DC0022
:1005F20063080318630A5B07DD005C080F3EBA005C
:100602005D080318013E003EBB0064086607DA007D
:1006120065080318650A6707DB0062085A07DC00F1
:1006220063080318630A5B07DD0068085C07DE00E5
:1006320069080318690A5D07DF005E080F3EB8000B
:100642005F080318013E003EB90064086607DA003D
:1006520065080318650A6707DB0062085A07DC00B1
:1006620063080318630A5B07DD005C080F3EB600EF
:100672005D080318013E003EB7006608053EB20061
:1006820067080318013E003EB3006708B100660820
:10069200B0006708AF006608AE006608053EAA0013
:1006A20067080318013E003EAB0064086607DA00E3
:1006B20065080318650A6707DB005A08053EA800AB
:1006C2005B080318013E003EA9006608053EA6002D
:1006D20067080318013E003EA70064086607DA00B7
:1006E20065080318650A6707DB005A080A3EA4007A
:1006F2005B080318013E003EA50064086607DA00A5
:1007020065080318650A6707DB0062085A07DC0000
:1007120063080318630A5B07DD005C080A3EA20057
:100722005D080318013E003EA30064086607DA0074
:1007320065080318650A6707DB005A080A3EA0002D
:100742005B080318013E003EA1000130F4000030B6
:10075200F5000330F6000030F7000A168A11AD26C4
:100762000A128A111F300A168A11D5250A128A1115
:100772000230F4000030F5000330F6000030F700DC
:100782000A168A11AD260A128A1116300A168A1121
:10079200D5250A128A110330F4000030F500033027
:1007A200F6000030F7000A168A11AD260A128A11E5
:1007B2001F300A168A11D5250A128A110430F40054
:1007C2000030F5000330F6000030F7000A168A11F7
:1007D200AD260A128A111F300A168A11D5250A126D
:1007E2008A110A128A1597220800831203136208DB
:1007F2006407DA0063080318630A6507DB005A0816
:100802000A3EBA005B080318013E003EBB006208C4
:100812006407DA0063080318630A6507DB006808E7
:100822005A07DC0069080318690A5B07DD005C08E7
:100832000A3EB8005D080318013E003EB900620896
:100842006407DA0063080318630A6507DB005A08C5
:100852000A3EB6005B080318013E003EB70062087C
:100862006407DA0063080318630A6507DB00680897
:100872005A07DC0069080318690A5B07DD005C0897
:100882000F3EB2005D080318013E003EB30062084D
:100892006407DA0063080318630A6507DB00680867
:1008A2005A07DC0069080318690A5B07DD0066085D
:1008B2005C07DE0067080318670A5D07DF005E0851
:1008C2000F3EB0005F080318013E003EB10062080F
:1008D2006407DA0063080318630A6507DB00680827
:1008E2005A07DC0069080318690A5B07DD0066081D
:1008F2005C07DE0067080318670A5D07DF005E0811
:100902000F3EAE005F080318013E003EAF006408D0
:10091200053EAA0065080318013E003EAB006508CB
:10092200A9006408A8006508A7006408A600640876
:10093200053EA40065080318013E003EA5006208BA
:100942006407DA0063080318630A6507DB005A08C4
:10095200053EA2005B080318013E003EA3006408A6
:10096200053EA00065080318013E003EA1000130CB
:10097200F4000030F5000330F6000030F7000A16EC
:100982008A11AD260A128A111F300A168A11D5253C
:100992000A128A110230F4000030F5000330F6002A
:1009A2000030F7000A168A11AD260A128A111F308A
:1009B2000A168A11D5250A128A110330F400003072
:1009C200F5000330F6000030F7000A168A11AD2652
:1009D2000A128A1116300A168A11D5250A128A11AC
:1009E2000430F4000030F5000330F6000030F70068
:1009F2000A168A11AD260A128A111F300A168A11A6
:100A0200D5250A128A110A128A150321080001301B
:100A120083120313BA020030031CBB03BB02013072
:100A2200B8020030031CB903B9020130B60200302B
:100A3200031CB703B7020130B2020030031CB30338
:100A4200B3020130B0020030031CB103B102013025
:100A5200AE020030031CAF03AF020130AA02003025
:100A6200031CAB03AB020130A8020030031CA90334
:100A7200A9020130A6020030031CA703A70201301D
:100A8200A4020030031CA503A5020130A20200301B
:100A9200031CA303A3020130A0020030031CA10324
:100AA200A102B12F0130BE070318BF0A0030BF07F1
:100AB20069083F02031D5F2D68083E02031C6B2D6F
:100AC200BE01BF010330EA000030EB000A128A15B2
:100AD200442408000A128A153920080001308312C2
:100AE2000313BE070318BF0A0030BF0700303F02DE
:100AF200053003193E02031CE52DBE01BF01061994
:100B0200861D962D1430E6000030E7000230F40016
:100B12000030F5000E30F6000030F7000A168A1198
:100B2200AD260A128A113330D62D06198619AC2D3C
:100B32000F30E6000030E7000230F4000030F5002C
:100B42000E30F6000030F7000A168A11AD260A129E
:100B52008A113530D62D061D8619C22D0A30E600BF
:100B62000030E7000230F4000030F5000E30F600ED
:100B72000030F7000A168A11AD260A128A113730A0
:100B8200D62D143083120313E6000030E700023042
:100B9200F4000030F5000E30F6000030F7000A16BF
:100BA2008A11AD260A128A1131300A168A11D52508
:100BB2000A128A11043083120313EA000030EB0098
:100BC2000A128A11EC2208000A128A159E200800D5
:100BD200013083120313BE070318BF0A0030BF0798
:100BE20067083F02031DF72D66083E02031C032E11
:100BF200BE01BF010630EA000030EB000A128A157E
:100C02001E2608000A128A15972208000130831254
:100C12000313BE070318BF0A0030BF0700303F02AC
:100C2200053003193E02031C7D2EBE01BF01061AC8
:100C3200861E2E2E1430E4000030E5000330F4004E
:100C42000030F5000E30F6000030F7000A168A1167
:100C5200AD260A128A1133306E2E061A861A442ED7
:100C62000F30E4000030E5000330F4000030F500FE
:100C72000E30F6000030F7000A168A11AD260A126D
:100C82008A1135306E2E061E861A5A2E0A30E4005C
:100C92000030E5000330F4000030F5000E30F600BD
:100CA2000030F7000A168A11AD260A128A1137306F
:100CB2006E2E143083120313E4000030E50003307B
:100CC200F4000030F5000E30F6000030F7000A168E
:100CD2008A11AD260A128A1131300A168A11D525D7
:100CE2000A128A11073083120313EA000030EB0064
:100CF2000A128A11F62308000A128A15FC22080039
:100D0200013083120313BE070318BF0A0030BF0766
:100D120065083F02031D8F2E64083E02031C9B2EB2
:100D2200BE01BF010930EA000030EB000A128A1549
:100D3200312508000A128A150321080001308312A6
:100D42000313BE070318BF0A0030BF0700303F027B
:100D5200053003193E02031C152FBE01BF01061BFD
:100D6200861FC62E1430E2000030E3000430F40087
:100D72000030F5000E30F6000030F7000A168A1136
:100D8200AD260A128A113330062F061B861BDC2E73
:100D92000F30E2000030E3000430F4000030F500D0
:100DA2000E30F6000030F7000A168A11AD260A123C
:100DB2008A113530062F061F861BF22E0A30E200FA
:100DC2000030E3000430F4000030F5000E30F6008D
:100DD2000030F7000A168A11AD260A128A1137303E
:100DE200062F143083120313E2000030E3000430B4
:100DF200F4000030F5000E30F6000030F7000A165D
:100E02008A11AD260A128A1131300A168A11D525A5
:100E12000A128A110A3083120313EA000030EB002F
:100E22000A128A11E22108000A128A1568210800B2
:100E3200013083120313BE070318BF0A0030BF0735
:100E420063083F02031D272F62083E02031C332F53
:100E5200BE01BF010C30EA000030EB000A128A1515
:100E62000B2708000A128A15CD21080001308312CF
:100E72000313BE070318BF0A0030BF0700303F024A
:100E8200053003193E02031CAD2FBE01BF01061837
:100E9200861C5E2F1430E8000030E9000130F400B7
:100EA2000030F5000E30F6000030F7000A168A1105
:100EB200AD260A128A1133309E2F06188618742F17
:100EC2000F30E8000030E9000130F4000030F50096
:100ED2000E30F6000030F7000A168A11AD260A120B
:100EE2008A1135309E2F061C86188A2F0A30E80098
:100EF2000030E9000130F4000030F5000E30F60059
:100F02000030F7000A168A11AD260A128A1137300C
:100F12009E2F143083120313E8000030E9000130E1
:100F2200F4000030F5000E30F6000030F7000A162B
:100F32008A11AD260A128A1131300A168A11D52574
:100F42000A128A11013083120313EA000030EB0007
:100F52000A128A11D82008000A128A1532220800C1
:100F6200831203136B08003A0319B82FD22F6A08B1
:100F7200013A0319532D023A03196F2D073A031947
:100F8200E92D023A0319072E013A0319812E0E3A6E
:100F920003199F2E033A0319192F063A0319372F03
:100FA200D22F08008313B430FD001530FE009330B9
:100FB200FF00A03084000A168A1186250A128A11BF
:100FC2007030FD001530FE007430FF006230840086
:100FD2000A168A1186250A128A11B4308400BC309E
:100FE2000A168A1155250A128A11203084004230CD
:100FF2000A168A11552583010A168A116B2EF200F0
:101002008312031389100914720888000A168A11C0
:10101200A725080085308312031390000130EE00EB
:101022000030EF00C001C1010A168A11BE250A1262
:101032008A15831203136F08F1006E08F000503016
:10104200F200C330F3000A168A11F1257009F80084
:101052007109F900F80A0319F90A780883120313CF
:10106200BC007908BD003D088F003C088E000800D6
:101072001430831203138500113087000130F4000D
:101082000030F5000F30F6000030F7000A168A1122
:10109200AD260A128A15831203133708C3003608D5
:1010A200C2000A128A113B200A128A150230F40089
:1010B2000030F5000F30F6000030F7000A168A11F2
:1010C200AD260A128A15831203133308C3003208AD
:1010D200C2000A128A113B200A128A150330F40058
:1010E2000030F5000F30F6000030F7000A168A11C2
:1010F200AD260A128A15831203132B08C3002A088D
:10110200C2000A128A113B200A128A150430F40026
:101112000030F5000F30F6000030F7000A168A1191
:10112200AD260A128A15831203132508C300240868
:10113200C2000A128A113B200800123083120313E4
:101142008500113087000130F4000030F5000F30C7
:10115200F6000030F7000A168A11AD260A128A1527
:10116200831203133908C3003808C2000A128A1115
:101172003B200A128A150230F4000030F5000F30CD
:10118200F6000030F7000A168A11AD260A128A15F7
:10119200831203133308C3003208C2000A128A11F1
:1011A2003B200A128A150330F4000030F5000F309C
:1011B200F6000030F7000A168A11AD260A128A15C7
:1011C200831203132B08C3002A08C2000A128A11D1
:1011D2003B200A128A150430F4000030F5000F306B
:1011E200F6000030F7000A168A11AD260A128A1597
:1011F200831203132508C3002408C2000A128A11AD
:101202003B2008001130831203138500143087003D
:101212000130F4000030F5000F30F6000030F70026
:101222000A168A11AD260A128A15831203133B0885
:10123200C3003A08C2000A128A113B200A128A1518
:101242000230F4000030F5000F30F6000030F700F5
:101252000A168A11AD260A128A158312031333085D
:10126200C3003208C2000A128A113B200A128A15F0
:101272000330F4000030F5000F30F6000030F700C4
:101282000A168A11AD260A128A1583120313270839
:10129200C3002608C2000A128A113B200A128A15CC
:1012A2000430F4000030F5000F30F6000030F70093
:1012B2000A168A11AD260A128A158312031325080B
:1012C200C3002408C2000A128A113B200800113010
:1012D200831203138500123087000130F4000030BE
:1012E200F5000F30F6000030F7000A168A11AD261D
:1012F2000A128A15831203133B08C3003A08C2007C
:101302000A128A113B200A128A150230F4000030B8
:10131200F5000F30F6000030F7000A168A11AD26EC
:101322000A128A15831203133308C3003208C2005B
:101332000A128A113B200A128A150330F400003087
:10134200F5000F30F6000030F7000A168A11AD26BC
:101352000A128A15831203132908C3002808C2003F
:101362000A128A113B200A128A150430F400003056
:10137200F5000F30F6000030F7000A168A11AD268C
:101382000A128A15831203132508C3002408C20017
:101392000A128A113B2008001130831203138500C0
:1013A200413087000130F4000030F5000F30F600C4
:1013B2000030F7000A168A11AD260A128A15831226
:1013C20003133B08C3003A08C2000A128A113B20E9
:1013D2000A128A150230F4000030F5000F30F600D0
:1013E2000030F7000A168A11AD260A128A158312F6
:1013F20003133308C3003208C2000A128A113B20C9
:101402000A128A150330F4000030F5000F30F6009E
:101412000030F7000A168A11AD260A128A158312C5
:1014220003132B08C3002A08C2000A128A113B20A8
:101432000A128A150430F4000030F5000F30F6006D
:101442000030F7000A168A11AD260A128A15831295
:1014520003132108C3002008C2000A128A113B208C
:1014620008001130831203138500213087000130F8
:10147200F4000030F5000F30F6000030F7000A16D5
:101482008A11AD260A128A15831203133B08C30080
:101492003A08C2000A128A113B200A128A15023047
:1014A200F4000030F5000F30F6000030F7000A16A5
:1014B2008A11AD260A128A15831203133308C30058
:1014C2003208C2000A128A113B200A128A1503301E
:1014D200F4000030F5000F30F6000030F7000A1675
:1014E2008A11AD260A128A15831203132B08C30030
:1014F2002A08C2000A128A113B200A128A150430F5
:10150200F4000030F5000F30F6000030F7000A1644
:101512008A11AD260A128A15831203132308C30007
:101522002208C2000A128A113B20080041308312AD
:1015320003138500113087000130F4000030F500FC
:101542000F30F6000030F7000A168A11AD260A1293
:101552008A15831203133B08C3003A08C2000A1219
:101562008A113B200A128A150230F4000030F5007D
:101572000F30F6000030F7000A168A11AD260A1263
:101582008A15831203132F08C3002E08C2000A1201
:101592008A113B200A128A150330F4000030F5004C
:1015A2000F30F6000030F7000A168A11AD260A1233
:1015B2008A15831203132B08C3002A08C2000A12D9
:1015C2008A113B200A128A150430F4000030F5001B
:1015D2000F30F6000030F7000A168A11AD260A1203
:1015E2008A15831203132508C3002408C2000A12B5
:1015F2008A113B2008002130831203138500113029
:1016020087000130F4000030F5000F30F6000030A2
:10161200F7000A168A11AD260A128A1583120313DD
:101622003B08C3003A08C2000A128A113B200A1280
:101632008A150230F4000030F5000F30F600003059
:10164200F7000A168A11AD260A128A1583120313AD
:101652003108C3003008C2000A128A113B200A1264
:101662008A150330F4000030F5000F30F600003028
:10167200F7000A168A11AD260A128A15831203137D
:101682002B08C3002A08C2000A128A113B200A1240
:101692008A150430F4000030F5000F30F6000030F7
:1016A200F7000A168A11AD260A128A15831203134D
:1016B2002508C3002408C2000A128A113B20080030
:1016C2000130F4000030F5000130F6000030F70080
:1016D2000A168A11AD260A128A153F300A168A1195
:1016E200D5250A128A150130F4000030F5000A30BF
:1016F200F6000030F7000A168A11AD260A128A1582
:1017020028300A168A11D5250A128A150130F400EA
:101712000030F5001330F6000030F7000A168A1187
:10172200AD260A128A152C300A168A11D5250A12FC
:101732008A150230F4000030F5000130F600003066
:10174200F7000A168A11AD260A128A153D300A16CA
:101752008A11D5250A128A150230F4000030F500EC
:101762000A30F6000030F7000A168A11AD260A1276
:101772008A1528300A168A11D5250A128A150230CE
:10178200F4000030F5001330F6000030F7000A16BE
:101792008A11AD260A128A152C300A168A11D5250D
:1017A2000A128A150330F4000030F5000130F60009
:1017B2000030F7000A168A11AD260A128A153B304C
:1017C2000A168A11D5250A128A150330F400003050
:1017D200F5000A30F6000030F7000A168A11AD262D
:1017E2000A128A1528300A168A11D5250A128A1574
:1017F2000330F4000030F5001330F6000030F7003B
:101802000A168A11AD260A128A152C300A168A1176
:10181200D5250A128A150430F4000030F500013093
:10182200F6000030F7000A168A11AD260A128A1550
:1018320039300A168A11D5250A128A150430F400A5
:101842000030F5000A30F6000030F7000A168A115F
:10185200AD260A128A1528300A168A11D5250A12CF
:101862008A150430F4000030F5001330F600003021
:10187200F7000A168A11AD260A128A152C300A16AA
:101882008A11D5250800053083120313BA000030EF
:10189200BB000530B8000030B90064086607DA0002
:1018A20065080318650A6707DB0062085A07DC004F
:1018B20063080318630A5B07DD005C08143EB60088
:1018C2005D080318013E003EB7000530B20000304B
:1018D200B3006608053EB00067080318013E003EEB
:1018E200B1000530AE000030AF0066080A3EAA0023
:1018F20067080318013E003EAB0064086607DA0081
:1019020065080318650A6707DB005A080A3EA80043
:101912005B080318013E003EA90066080A3EA600C5
:1019220067080318013E003EA70064086607DA0054
:1019320065080318650A6707DB005A080F3EA40012
:101942005B080318013E003EA50064086607DA0042
:1019520065080318650A6707DB0062085A07DC009E
:1019620063080318630A5B07DD005C080F3EA200F0
:101972005D080318013E003EA30064086607DA0012
:1019820065080318650A6707DB005A080F3EA000C6
:101992005B080318013E003EA1000130F400003054
:1019A200F5000E30F6000030F7000A168A11AD2657
:1019B2000A128A152F300A168A11D5250A128A159B
:1019C2000130F4000030F5000330F6000030F7007B
:1019D2000A168A11AD260A128A150D300A168A11C4
:1019E200D5250A128A150230F4000030F5000330C2
:1019F200F6000030F7000A168A11AD260A128A157F
:101A02001F300A168A11D5250A128A150330F400EE
:101A12000030F5000330F6000030F7000A168A1194
:101A2200AD260A128A151F300A168A11D5250A1206
:101A32008A150430F4000030F5000330F60000305F
:101A4200F7000A168A11AD260A128A151F300A16E5
:101A52008A11D5250A128A150A128A159E200800B3
:101A62008312031362080A3EBA0063080318013E98
:101A7200003EBB0068086207DA0069080318690AB9
:101A82006307DB005A080A3EB8005B080318013EF0
:101A9200003EB90062080A3EB60063080318013E20
:101AA200003EB70068086207DA0069080318690A8D
:101AB2006307DB005A080F3EB2005B080318013EC1
:101AC200003EB30068086207DA0069080318690A71
:101AD2006307DB0066085A07DC0067080318670A19
:101AE2005B07DD005C080F3EB0005D080318013E95
:101AF200003EB10068086207DA0069080318690A43
:101B02006307DB005A080F3EAE005B080318013E74
:101B1200003EAF000530AA000030AB000530A8003F
:101B22000030A90068086207DA0069080318690A28
:101B32006307DB0066085A07DC0067080318670AB8
:101B42005B07DD005C08143EA6005D080318013E39
:101B5200003EA7000530A4000030A5006208053E43
:101B6200A20063080318013E003EA3000530A00056
:101B72000030A1000330F4000030F5000E30F60012
:101B82000030F7000A168A11AD260A128A152F3084
:101B92000A168A11D5250A128A150130F40000307E
:101BA200F5000330F6000030F7000A168A11AD2660
:101BB2000A128A151F300A168A11D5250A128A15A9
:101BC2000230F4000030F5000330F6000030F70078
:101BD2000A168A11AD260A128A151F300A168A11B0
:101BE200D5250A128A150330F4000030F5000330BF
:101BF200F6000030F7000A168A11AD260A128A157D
:101C02000D300A168A11D5250A128A150430F400FD
:101C12000030F5000330F6000030F7000A168A1192
:101C2200AD260A128A151F300A168A11D5250A1204
:101C32008A150A128A1568210800831203136208A2
:101C42006407DA0063080318630A6507DB005A08B1
:101C52000F3EBA005B080318013E003EBB0062085B
:101C62006407DA0063080318630A6507DB00680883
:101C72005A07DC0069080318690A5B07DD005C0883
:101C82000F3EB8005D080318013E003EB90062082D
:101C92006407DA0063080318630A6507DB005A0861
:101CA2000F3EB6005B080318013E003EB700053048
:101CB200B2000030B3000530B0000030B10062085D
:101CC2006407DA0063080318630A6507DB00680823
:101CD2005A07DC0069080318690A5B07DD005C0823
:101CE200143EAE005D080318013E003EAF00053011
:101CF200AA000030AB006408053EA800650803187E
:101D0200013E003EA9000530A6000030A70064088D
:101D12000A3EA40065080318013E003EA5006208C1
:101D22006407DA0063080318630A6507DB005A08D0
:101D32000A3EA2005B080318013E003EA3006408AD
:101D42000A3EA00065080318013E003EA1000230D1
:101D5200F4000030F5000E30F6000030F7000A16ED
:101D62008A11AD260A128A152F300A168A11D52534
:101D72000A128A150130F4000030F5000330F60033
:101D82000030F7000A168A11AD260A128A151F3092
:101D92000A168A11D5250A128A150230F40000307B
:101DA200F5000330F6000030F7000A168A11AD265E
:101DB2000A128A150D300A168A11D5250A128A15B9
:101DC2000330F4000030F5000330F6000030F70075
:101DD2000A168A11AD260A128A151F300A168A11AE
:101DE200D5250A128A150430F4000030F5000330BC
:101DF200F6000030F7000A168A11AD260A128A157B
:101E02001F300A168A11D5250A128A150A128A1556
:101E1200FC220800053083120313BA000030BB0015
:101E22006808053EB80069080318013E003EB90083
:101E32000530B6000030B70068080A3EB2006908F3
:101E42000318013E003EB30066086807DA0067081F
:101E52000318670A6907DB005A080F3EB0005B08E7
:101E62000318013E003EB10068080A3EAE00690850
:101E72000318013E003EAF0066086807DA006708F3
:101E82000318670A6907DB005A080F3EAA005B08BD
:101E92000318013E003EAB0066086807DA006708D7
:101EA2000318670A6907DB0064085A07DC00650843
:101EB2000318650A5B07DD005C080F3EA8005D0899
:101EC2000318013E003EA90066086807DA006708A9
:101ED2000318670A6907DB0064085A07DC00650813
:101EE2000318650A5B07DD005C080F3EA6005D086B
:101EF2000318013E003EA7000530A4000030A500F3
:101F02000530A2000030A30066086807DA006708FF
:101F12000318670A6907DB0064085A07DC006508D2
:101F22000318650A5B07DD005C08143EA0005D082B
:101F32000318013E003EA1000430F4000030F50019
:101F42000E30F6000030F7000A168A11AD260A128A
:101F52008A152F300A168A11D5250A128A150130E0
:101F6200F4000030F5000330F6000030F7000A16E6
:101F72008A11AD260A128A151F300A168A11D52532
:101F82000A128A150230F4000030F5000330F60020
:101F92000030F7000A168A11AD260A128A151F3080
:101FA2000A168A11D5250A128A150330F400003068
:101FB200F5000330F6000030F7000A168A11AD264C
:101FC2000A128A151F300A168A11D5250A128A1595
:101FD2000430F4000030F5000330F6000030F70062
:101FE2000A168A11AD260A128A150D300A168A11AE
:101FF200D5250A128A150A128A15322208001030D3
:102002008A000408840A8207003447345234453473
:1020120045344E342D343E3400344F344634463445
:102022000034593445344C344C344F345734203412
:102032002034003447345234453445344E3420344D
:102042002034203400345234453444342034203493
:10205200203420342034003420344F344E340034C1
:10206200533465340034203400344534003453345E
:102072000034463400344E340034533400344E3489
:0A20820000345734003445340034B4
:102AAA0064008001840A0406031900340406562DC2
:102ABA008312031389100910720888000A168A11F2
:102ACA00A72508000130F0020030031CF103F102CF
:102ADA00700A031D672D710A03190800672D0A344D
:102AEA0000340A3400340A3400340A34003401341D
:102AFA00003480340034013400347E088A007F08B0
:102B0A00820082250A168A118000840A04087D063A
:102B1A0003190034FF0A0319FE0A862D30343134B2
:102B2A00323433343434353436343734383439344F
:102B3A00303431343234333434343534363437344F
:102B4A00383439348312031309156430F000003025
:102B5A00F1000A168A1167250A168A1183120313CD
:102B6A0009116430F0000030F1000A168A11672555
:102B7A00080083120313101A4014901AC014400A52
:102B8A00F0006F08F2006E08F100CE2D0310F10D6F
:102B9A00F20DF00BCB2D7108EE007208EF00080061
:102BAA00F400740884000A168A1100200A168A1191
:102BBA00003A03190800740884000A168A110020D2
:102BCA000A168A110A128A1500200A168A11013079
:102BDA00F3007308F407D62DF501F60170087104A5
:102BEA000319282EF701F70AF11B072E01300310EB
:102BFA00F00DF10DFF3E031DFC2D0130F4007408A9
:102C0A00F707F92D01300310F50DF60DFF3E031DF0
:102C1A00082E71087302031D142E70087202031C19
:102C2A001D2E7008F2027108031CF303F3027514D7
:102C3A0001300310F10CF00CFF3E031D1E2E013073
:102C4A00F702031D072E7608F1007508F000080048
:102C5A003030F2000030F3000A168A115D250A1698
:102C6A008A113030F2000030F3000A168A115D250D
:102C7A000A168A113030F2000030F3000A168A115F
:102C8A005D250A168A113830F2000030F3000A1660
:102C9A008A115D250A168A110130F2000030F3000C
:102CAA000A168A115D250A168A110C30F2000030C4
:102CBA00F3000A168A115D250A168A110630F200F7
:102CCA000030F3000A168A115D25080083160313E3
:102CDA008501831203138501831603138601831268
:102CEA0003138601831603138701831203138701D3
:102CFA0083160313880183120313880183160313AF
:102D0A008901831203138901831603178801890134
:102D1A000A168A112D260A168A110A128A156123A1
:102D2A000A168A110C3083120313E0000030E10006
:102D3A000A168A1147270A168A110A128A150B20BF
:102D4A000A168A110A168A11F7260A168A11A72E56
:102D5A007408FF3EFA0075080318013EFF3EFB00A7
:102D6A007608FF3EF80077080318013EFF3EF90097
:102D7A0000307B02043003197A020318080000307D
:102D8A00790214300319780203180800803083127C
:102D9A000313EC000030ED007A1CD92E40306C048D
:102DAA00EC0000306D04ED00FA1CE72E04306C04D0
:102DBA00EC0000306D04ED0010306C04EC000030C3
:102DCA006D04ED0078086C07EC0079080318790A9D
:102DDA006D07ED006D08F3006C08F2000A168A11FF
:102DEA005D250800831203130C1CF72E0C106F08C4
:102DFA00F1006E08F0005030F200C330F3000A16FA
:102E0A008A11F1250A168A11700983120313E00048
:102E1A007109E100E00A0319E10A6008BC006108CF
:102E2A00BD003D088F003C088E0001308316031355
:102E3A00B407003003180130B50700300318013019
:102E4A00B607003003180130B7073708031D392FBA
:102E5A003608031D392F3508031D392F1430340263
:102E6A00031D372F031C08000A128A110825003097
:102E7A0083160313B7000030B6000030B5000030E7
:102E8A00B400080083120313BE01BF010130F2002F
:102E9A000030F3000A168A115D250A168A110A12F1
:102EAA008A1561230A168A11831203136108EB003B
:102EBA006008EA00802F0A128A11D82008000A1234
:102ECA008A15442408000A128A11EC2208000A1200
:102EDA008A151E2608000A128A11F62308000A1209
:102EEA008A15312508000A128A11E22108000A12FD
:102EFA008A150B270800831203136B08003A03197B
:102F0A00872FA12F6A08013A0319602F023A031981
:102F1A00642F073A0319682F023A03196C2F013AF2
:102F2A000319702F0E3A0319742F033A0319782FD5
:102F3A00063A03197C2FA12F08000030FC0000304C
:102F4A00FB000030FA000030F900730872047104C3
:102F5A0070040319F72FFD01FD0AF31BC22F01307C
:102F6A00F8000310F00DF10DF20DF30DF80BB62F6A
:102F7A000130F8007808FD07B22F0130F80003107D
:102F8A00F90DFA0DFB0DFC0DF80BC42F730877022F
:102F9A00031DD92F72087602031DD92F71087502F5
:102FAA00031DD92F70087402031CEA2F7008F4025B
:102FBA007108031C710FF5027208031C720FF602E6
:102FCA007308031C730FF702791401300310F30C12
:102FDA00F20CF10CF00CFF3E031DEB2F0130FD0249
:102FEA00031DC22F7C08F3007B08F2007A08F10067
:062FFA007908F000080058
:00000001FF
